:100000000C94DA010C9402020C9402020C94020289
:100010000C9402020C9402020C9402020C94020250
:100020000C9402020C9402020C9402020C94020240
:100030000C9402020C9402020C9402020C94020230
:100040000C9404180C9402020C9402020C94020208
:100050000C9402020C9402020C9402020C94020210
:100060000C9402020C9402023C21444F4354595018
:10007000452048544D4C3E3C48544D4C3E3C484530
:1000800041443E3C6D6574612063686172736574C0
:100090003D277574662D38273E3C6D657461206E72
:1000A000616D653D2776696577706F72742720638F
:1000B0006F6E74656E743D27696E697469616C2D2D
:1000C0007363616C653D31273E3C6C696E6B2072D9
:1000D000656C3D277374796C65736865657427205A
:1000E000687265663D27687474703A2F2F636F6479
:1000F000652E6A71756572792E636F6D2F6D6F62F3
:10010000696C652F312E332E312F6A7175657279C6
:100110002E6D6F62696C652D312E332E312E6D6917
:100120006E2E63737327202F3E3C73637269707465
:10013000207372633D27687474703A2F2F636F6465
:10014000652E6A71756572792E636F6D2F6A717590
:100150006572792D312E392E312E6D696E2E6A73AE
:10016000273E3C2F7363726970743E3C73637269FF
:100170007074207372633D27687474703A2F2F6314
:100180006F64652E6A71756572792E636F6D2F6D60
:100190006F62696C652F312E332E312F6A71756550
:1001A00072792E6D6F62696C652D312E332E312E72
:1001B0006D696E2E6A73273E3C2F7363726970748B
:1001C0003E00003C2F484541443E3C424F44593E8E
:1001D000003C64697620646174612D726F6C653DCA
:1001E00027636F6E74656E74273E3C683320616CC4
:1001F00069676E3D2763656E746572273E6A4D6F51
:1002000062696C65204175746F6D6174696F6E3CD5
:100210002F68333E3C756C20646174612D726F6C85
:10022000653D276C6973747669657727206461740E
:10023000612D696E7365743D27747275652720643E
:100240006174612D66696C7465723D2774727565A1
:100250002720646174612D66696C7465722D706C01
:10026000616365686F6C6465722D746578743D2791
:100270004C696D7061722043616D706F27206461FD
:1002800074612D66696C7465722D706C616365684C
:100290006F6C6465723D27427573636172204D65B2
:1002A0006E75273E003C64697620646174612D722E
:1002B0006F6C653D27636F6E74656E74273E3C619D
:1002C00020646174612D726F6C653D276275747472
:1002D0006F6E272020646174612D7468656D653DC3
:1002E00027612720687265663D27002720636C61BF
:1002F00073733D27737570657220627574746F6EC9
:100300002000273E003C2F613E3C2F6469763E3C36
:100310002F703E003C7020616C69676E3D276365FD
:100320006E7465722720636C6173733D27736D6112
:100330006C6C273E3C2F6469763E3C2F424F4459FB
:100340003E3C2F48544D4C3E000000000024002746
:10035000002A0000000000250028002B00000000FB
:1003600000230026002900040404040404040402F9
:100370000202020202030303030303010204081042
:10038000204080010204081020010204081020000F
:100390000000070002010000030406000000000046
:1003A000000000001202340396039C069408A40E79
:1003B0004A105B1611241FBECFEFD8E0DEBFCDBFC1
:1003C00012E0A0E0B1E0E4E9F3E302C005900D9291
:1003D000AA36B107D9F717E0AAE6B2E001C01D922C
:1003E000A330B107E1F713E0C4EBD3E004C02297D8
:1003F000FE010E94C419C43AD107C9F70E94C3166E
:100400000C94C8190C940000FB01DC0141505040D1
:1004100030F08D910190801919F40020B9F7881BF4
:10042000990B08950F9386E792E060E040E020E0AA
:1004300000E00E944F168AE692E060EC48EA20E075
:1004400005E60E944F1680E792E060E570E00E94AA
:1004500072080F910895FF920F931F93DF93CF932C
:1004600000D000D000D0CDB7DEB78091720290915D
:1004700073029C838B8386E392E09A8389838091C5
:100480007402909175029E838D838CE992E0BE0187
:100490006F5F7F4F0E94B90B8CE992E00E94940A33
:1004A0008C018CE992E0B8010E94AC0AF82E809190
:1004B0000C0290910D020817190721F4802F6F2D5F
:1004C0000E942D1980910E0290910F0208171907B2
:1004D00021F4802F6F2D0E942D1980911002909190
:1004E00011020817190721F4802F6F2D0E942D1972
:1004F00080911202909113020817190721F4802F9E
:100500006F2D0E942D1926960FB6F894DEBF0FBEF0
:10051000CDBFCF91DF911F910F91FF900895EF9282
:10052000FF920F931F93DF93CF9300D000D000D0A2
:10053000CDB7DEB787E692E09A83898380916C021B
:1005400090916D02A0916E02B0916F028B839C839B
:10055000AD83BE838CE9E82E82E0F82EC70166E009
:1005600072E0AE014F5F5F4F0E94C70F80E792E0DD
:100570000E94D80980910C0261E00E94EE188091DF
:100580000E0261E00E94EE188091100261E00E946C
:10059000EE188091120261E00E94EE1880910C0228
:1005A00060E00E942D1980910E0260E00E942D19DA
:1005B0008091100260E00E942D198091120260E08B
:1005C0000E942D1960910C0270910D02C70140E04C
:1005D00051E025E131E001E010E00E947E0A6091E7
:1005E0000E0270910F02C7014DE251E02EE331E09F
:1005F0000E947E0A6091100270911102C70142E5CB
:1006000051E022E631E00E947E0A60911202709170
:100610001302C70144E751E02DE831E00E947E0A51
:1006200026960FB6F894DEBF0FBECDBFCF91DF91F7
:100630001F910F91FF90EF9008958AE061E00E9472
:100640002D198AE061E00E94EE188CB580618CBDA6
:100650008CB580648CBD8DE061E00E94EE188BE06B
:1006600061E00E94EE1808950F938CE792E060E03D
:1006700040E020E000E00E944F160F9108959C0199
:10068000FB0182819381A481B581F90182839383E7
:10069000A483B583178216820895CF93DF93FB015D
:1006A00001C0319680818823E1F7EB01A0E0B0E042
:1006B00020E030E021C06E3261F42F3F310509F0B7
:1006C0007CF5FA01EA0FFB1F2283119620E030E04F
:1006D00012C0C901E3E0880F991FEA95E1F7220FE4
:1006E000331F820F931F262F332727FD309520536A
:1006F0003040280F391F21966881662319F0A430F5
:10070000B105CCF22F3F310509F054F4A430B10506
:100710003CF4A40FB51F12962C9321E030E002C0E8
:1007200020E030E0C901DF91CF9108950F9382E876
:1007300092E060E040E020E000E00E944F160F9160
:1007400008952F923F924F925F926F927F928F9275
:100750009F92AF92BF92CF92DF92EF92FF920F9350
:100760001F93DF93CF93CDB7DEB769970FB6F89499
:10077000DEBF0FBECDBF4C018B011A010E944C1889
:100780002B013C01F8E0EF2EF12CE80CF91C58018C
:10079000CC24DD2414C00E944C1864197509860904
:1007A0009709A616B706C806D90618F42FEF3FEF2B
:1007B0000BC162E370E080E090E00E945A18C7012C
:1007C0000E94BE101816190634F7F40122813381F5
:1007D00044815581818D928DA38DB48D8A879B87AD
:1007E000AC87BD87281739074A075B0709F0EAC0BD
:1007F000858D968DC59709F0E5C000C18E01025F19
:100800001F4FC701B8014CE050E00E947010F80182
:10081000528143815B834A83F401268137818E852F
:100820009F852817390711F457FD06C0C7010E949C
:1008300038102CEF3FEFC8C04F705270452B31F08D
:10084000C7010E9438102BEF3FEFBEC0F801768041
:1008500067806114710441F0AA24BB2448012E0171
:100860000894411C511C28C0C7010E9438102AEF6F
:100870003FEFAAC0C701B20141E050E00E947010F2
:100880008981882321F408C0C7010E9493108981BF
:10089000815089838F5FC1F78981882359F700E0F0
:1008A00010E0C7010E9493100F5F1F4F0430110525
:1008B000C1F70894A11CB11CF401D480C580AC140C
:1008C000BD04C0F244245524C701BE016F5F7F4FB1
:1008D00041E050E00E9470109981892F807C61F482
:1008E000992321F40DC0C7010E9493108981815082
:1008F00089838F5FC1F704C0C7010E9493101982DA
:100900008981882309F7C701BE016C5F7F4F42E0F0
:1009100050E00E947010C701BE016A5F7F4F42E045
:1009200050E00E94701000E010E0C7010E94931098
:100930000F5F1F4F04301105C1F7C701BE016E5F85
:100940007F4F42E050E00E947010DC80CD80F1E0EB
:10095000CF16D10419F5BE80AF8081E0A816B1048E
:10096000E9F49A818B81049731F0C7010E94381015
:1009700027EF3FEF29C0E2E0F0E02E0E3F1EC70157
:10098000B10144E050E00E94701021E030E01CC052
:10099000C7010E9493100F5F1F4F02C000E010E0DC
:1009A0009A808B800815190598F30894411C511CF6
:1009B0004614570408F488CFC7010E94381026EF68
:1009C0003FEF02C02EEF3FEFC90169960FB6F894D2
:1009D000DEBF0FBECDBFCF91DF911F910F91FF9072
:1009E000EF90DF90CF90BF90AF909F908F907F90CF
:1009F0006F905F904F903F902F90089587E692E020
:100A000099878887C7010E941C100C970CF0F6CEBE
:100A10002DEF3FEFD9CF6F927F928F929F92AF923F
:100A2000BF92CF92DF92EF92FF920F931F93DF93CB
:100A3000CF9300D00F92CDB7DEB78C01F62EE72E04
:100A40000E944C18F80177836683B8E0CB2ED12C36
:100A5000C00ED11E0A5F1F4FC601B80142E050E030
:100A60000E94121181E090E09B838A83A2E08A2E8B
:100A7000912C8C0E9D1EC601B40142E050E00E94F4
:100A8000121180E091E09B838A83C601B40142E0A9
:100A900050E00E9412111B821A82C601B40142E08A
:100AA00050E00E941211C601B40142E050E00E94E1
:100AB0001211C601B40142E050E00E9412112F2D24
:100AC0003E2DC9018C017C013E010894611C711C02
:100AD00020C00894E11CF11CF7018081882311F0EB
:100AE0008E32B9F75701A01AB10A1A141B0474F414
:100AF0008E2D801B8983C601B30141E050E00E9426
:100B00001211C601B801A5010E94121187010F5FE1
:100B10001F4FF7018081882311F07801DDCF198202
:100B2000C601BE016F5F7F4F41E050E00E9412118D
:100B300000E011E01B830A83C601B40142E050E0EB
:100B40000E9412111B830A83C601B40142E050E0E7
:100B50000E94121181E090E00F900F900F90CF91C2
:100B6000DF911F910F91FF90EF90DF90CF90BF909A
:100B7000AF909F908F907F906F9008958F929F92EB
:100B8000AF92BF92CF92DF92EF92FF920F931F939B
:100B9000DF93CF9300D000D000D0CDB7DEB76C018B
:100BA0007B014A010E944D03892B19F001E010E0FE
:100BB00067C0F6012281338144815581809184028E
:100BC00090918502A0918602B0918702281739077B
:100BD0004A075B0719F40EEF1FEF52C018E0A12E71
:100BE000B12CAC0CBD1C0E944C189B01AC012F70A9
:100BF000307020503C4FC501B9010E94D6118130A0
:100C000019F000E010E03CC087E692E09A83898307
:100C1000F60182819381A481B5818B839C83AD830E
:100C2000BE83C501BE016F5F7F4F45E350E00E9468
:100C300032118C01009709F1C601B7010E940B0522
:100C40008C010097D1F0C5010E942D118C010097F5
:100C5000A1F0EE24FF24C60168E873E1A4010E941C
:100C6000A1038C010894E11CF11CF3E0EF16F104E0
:100C700021F08FEF0F3F180771F3C5010E94C111DA
:100C8000C80126960FB6F894DEBF0FBECDBFCF9138
:100C9000DF911F910F91FF90EF90DF90CF90BF9069
:100CA000AF909F908F900895FC011382128288EE7E
:100CB00093E0A0E0B0E084839583A683B7838AE1C4
:100CC00092E09183808364870895DF93CF930F929E
:100CD000CDB7DEB7FC016983A081B18112962D9159
:100CE0003C911397BE016F5F7F4F41E050E0F901E7
:100CF00009950F90CF91DF910895CF93DF93EC0189
:100D000007C0E881F9810680F781E02DCE010995C1
:100D1000E881F9810480F581E02DCE010995892BC8
:100D200081F7DF91CF91089520E0FC018485843024
:100D300009F021E0822F08950F9388E892E060E0A7
:100D400040E020E000E00E944F160F910895FC0162
:100D50008485843011F480E00895982F80E08D5FC1
:100D60009B4F0E9459140895CF93DF93EC018C851B
:100D7000843011F480E019C0CE010E94A7068431AE
:100D800091F0882381F0883171F08C3151F4E88141
:100D9000F9810480F581E02DCE01099520E0892BB1
:100DA00019F021E001C020E0822FDF91CF9108955A
:100DB000EF92FF920F931F93CF93DF93EC018C85FB
:100DC000843089F10E9411120E944C187B018C0121
:100DD000CE010E94A706882301F10E944C186E19CB
:100DE0007F09800B910B685E734080409040A8F4AF
:100DF00061E070E080E090E00E945A18E9CF8C85B5
:100E00000E946312EC85F0E0EE0FFF1FEC56FD4FE1
:100E10001182108284E08C8706C0CE010E94A70652
:100E2000882381F3ECCFDF91CF911F910F91FF9039
:100E3000EF9008950F931F93DF93CF930F92CDB749
:100E4000DEB78C01DC01ED91FC910480F581E02D91
:100E50000995892B19F42FEF3FEF0AC0F80184851B
:100E6000BE016F5F7F4F0E94C8138981282F30E039
:100E7000C9010F90CF91DF911F910F910895FC014F
:100E800084850E94D7130895DF93CF930F92CDB737
:100E9000DEB7FC018485BE016F5F7F4F41E050E00B
:100EA0000E94D713181619061CF02FEF3FEF03C04E
:100EB0008981282F30E0C9010F90CF91DF910895EB
:100EC000FC016485643019F420E030E005C084EE54
:100ED00096E00E940F159C01C90108950F931F937E
:100EE000CF93DF938C01EA01FC018485843019F4EF
:100EF00081E090E007C00E947113892B39F481E0F2
:100F000090E0F80193838283C0E0D0E0CE01DF91CE
:100F1000CF911F910F910895AF92BF92CF92DF9220
:100F2000EF92FF920F931F93CF93DF937C016B019E
:100F30005A01FC018485843009F056C0C0E0D0E03D
:100F400003E014E0C8010E945914882321F088317D
:100F500011F08C3119F4F701C48706C021960050B6
:100F60001F4FC430D10571F7F70124852430E1F11A
:100F7000809114029091150201969093150280932E
:100F80001402892B31F480E094E090931502809351
:100F900014024091140250911502822F61E020E06A
:100FA0000E94A21282E090E0C80ED91EF70184854B
:100FB000B601A5010E94061309C061E070E080E05F
:100FC00090E00E945A18C7010E94A706882321F4C6
:100FD00084E0F701848708C0C7010E94A706873113
:100FE00061F721E030E002C020E030E0C901DF918C
:100FF000CF911F910F91FF90EF90DF90CF90BF9016
:10100000AF9008956F927F928F929F92AF92BF920E
:10101000CF92DF92EF92FF920F931F93DF93CF93C4
:10102000CDB7DEB7E5970FB6F894DEBF0FBECDBFE4
:101030004C015B013A0193E1E92EF12CEC0EFD1E0F
:10104000C7010E94B916CE014B960E943B116E015A
:101050000894C11CD11CC6010E94B9168E01095FFB
:101060001F4FC8016CE972E00E94220AC701B80153
:101070000E943F03C701B501A6010E94BE059C0165
:1010800081309105C9F4D401ED91FC910484F5857A
:10109000E02D87E692E09E878D878B819C81AD81D4
:1010A000BE818F87988BA98BBA8BC401BE01635F09
:1010B0007F4FA30109959C01C901E5960FB6F894ED
:1010C000DEBF0FBECDBFCF91DF911F910F91FF907B
:1010D000EF90DF90CF90BF90AF909F908F907F90D8
:1010E0006F900895FC011382128286E392E091834F
:1010F0008083758364830895DF93CF930F92CDB778
:10110000DEB7FC016983A081B18112962D913C91DB
:101110001397BE016F5F7F4F41E050E0F9010995E1
:101120000F90CF91DF9108950F938EE892E060E0E9
:1011300040E020E000E00E944F160F9108958F924A
:101140009F92BF92CF92DF92EF92FF920F931F93E5
:10115000DF93CF93CDB7DEB72D970FB6F894DEBFF0
:101160000FBECDBF7C0104E912E088249924BB2482
:101170006E010894C11CD11CC6016B2D0E9454063F
:10118000D8012D913C91F701848195812817390769
:10119000B1F4C6010E94A706843121F481E0882EB3
:1011A000912C0DC0C6010E94A7068C3141F4C601E6
:1011B0000E946007892B19F4C6010E94D806B394D7
:1011C0000E5F1F4FF4E0BF16B9F6892841F4D7012E
:1011D000ED91FC910480F581E02DC70109952D96D4
:1011E0000FB6F894DEBF0FBECDBFCF91DF911F9138
:1011F0000F91FF90EF90DF90CF90BF909F908F90D6
:1012000008954F925F926F927F928F929F92AF92CA
:10121000BF92DF92EF92FF920F931F93DF93CF93D2
:10122000CDB7DEB72D970FB6F894DEBF0FBECDBF9A
:101230004C012B013A010E949F0894E9E92E92E0AB
:10124000F92E00E010E0DD245E010894A11CB11C21
:10125000C5016D2D0E945406F70120813181F401F2
:10126000848195812817390761F4C5010E94A7067A
:10127000873139F4C501B201A3010E946E07080F3E
:10128000191FD39482E090E0E80EF91E94E0D9167D
:10129000F9F6C8012D960FB6F894DEBF0FBECDBF8C
:1012A000CF91DF911F910F91FF90EF90DF90BF9052
:1012B000AF909F908F907F906F905F904F90089528
:1012C0009F92AF92BF92CF92DF92EF92FF920F93D5
:1012D0001F93DF93CF93CDB7DEB72D970FB6F8945A
:1012E000DEBF0FBECDBFC82E992E5B01CB010E9481
:1012F0009F0804E912E0DD247E010894E11CF11C42
:10130000C7016D2D0E945406F80120813181F5013D
:10131000848195812817390761F5C7010E94A706C6
:10132000873129F0C7010E94A7068C3111F5C7014A
:101330000E946007892BE9F0EC2DF92D8B819C81AF
:10134000938382838D819E81AF81B88584839583C9
:10135000A683B78389859A85AB85BC85808791876D
:10136000A287B3878AE192E0918380838D85848709
:101370000BC0D3940E5F1F4FF4E0DF1609F68C2DDF
:10138000992D64E00E9454068C2D992D2D960FB650
:10139000F894DEBF0FBECDBFCF91DF911F910F91AB
:1013A000FF90EF90DF90CF90BF90AF909F90089507
:1013B000CF92DF92EF92FF920F931F93DF93CF9321
:1013C000CDB7DEB72D970FB6F894DEBF0FBECDBFF9
:1013D0006C0100E010E07E010894E11CF11CC701E3
:1013E000602F0E945406C7010E94A7068823B1F40B
:1013F000F60144815581802F61E020E00E94A21215
:10140000802F0E942112000F111F0C561D4FF60154
:1014100084819581F8019183808305C00F5F1F4F00
:1014200004301105E1F62D960FB6F894DEBF0FBE1D
:10143000CDBFCF91DF911F910F91FF90EF90DF9083
:10144000CF900895DB01FC0127E632E03183208351
:1014500012962D913D914D915C9115972283338386
:10146000448355830895EF92FF920F931F93CF9378
:10147000DF93EA01A9012091DA063091DB062A30D8
:101480003105ACF58BE690E0FC012E9FC0012F9F4B
:10149000900D3E9F900D1124FC01E655FD4F718388
:1014A0006083EA59FF4F01931193E192F192108208
:1014B000DC01A252BD4F80E090E0FE01E80FF91F71
:1014C000E081EE2319F0D297EC93D296FA01E80F5F
:1014D000F91FE081E111EC93019611968233910599
:1014E00061F72F5F3F4F3093DB062093DA06DF91E1
:1014F000CF911F910F91FF90EF900895EF92FF927F
:101500000F931F930130110531F401E010E0E2E088
:10151000EE2EF12C02C0EE24FF240E94330A1F910C
:101520000F91FF90EF9008952091D8063091D90641
:101530008BE690E0289FF001299FF00D389FF00D79
:101540001124E655FD4F808191812FEF3FEF3093BD
:10155000D9062093D8060895EAEAF2E020E030E0C8
:10156000808191818617970799F440E08BE690E09F
:10157000289FF001299FF00D389FF00D1124EE5E99
:10158000FC4F80819181019709F441E0842F0895F7
:101590002F5F3F4FE559FF4F2A30310509F7089576
:1015A000CF92DF92EF92FF920F931F93DF93CF932F
:1015B000CDB7DEB7A0970FB6F894DEBF0FBECDBF94
:1015C0006B018A0140E050E07E010894E11CF11CAF
:1015D0000BC04032510541F4C601B70140E250E072
:1015E0000E946E0740E050E0F8010F5F1F4F8491AA
:1015F000F701E40FF51F80834F5F5F4F882349F7A2
:101600004230510530F041505040C601B7010E94B0
:101610006E07A0960FB6F894DEBF0FBECDBFCF9178
:10162000DF911F910F91FF90EF90DF90CF90089581
:101630006F927F928F929F92AF92BF92CF92DF92E2
:10164000EF92FF920F931F93DF93CF9300D00F92EF
:10165000CDB7DEB73B01DE011196ECE3F2E083E0AB
:1016600001900D928150E1F7CC24DD24B3016C0D83
:101670007D1D83EA91E04AE050E00E940402009759
:1016800041F00894C11CD11C87E2C816D10471F73F
:101690005BC0BAE0AB2EB12CAC0CBD1C7301EA0CE4
:1016A000FB1C85018824992411C08EEA91E0B701C2
:1016B00048E050E00E9404020894E11CF11C0097ED
:1016C00041F00894811C911C0F5F1F4F07321105D8
:1016D00064F3C40101970397B8F5F301EC0DFD1D08
:1016E000DE0111969501A4014A0D5B1D04C08185A0
:1016F0008D932F5F3F4F319624173507C4F320E0B9
:1017000030E040E050E0BE016F5F7F4F19C04115EF
:10171000510551F0C901880F991FF3E0220F331FC3
:10172000FA95E1F7280F391FFB01E40FF51F8081BF
:10173000992787FD9095C097280F391F4F5F5F4FFE
:101740004815590524F302C02FEF3FEFC9010F9050
:101750000F900F90CF91DF911F910F91FF90EF901D
:10176000DF90CF90BF90AF909F908F907F906F90C1
:1017700008952F923F924F925F926F927F928F9235
:101780009F92AF92BF92CF92DF92EF92FF920F9310
:101790001F93DF93CF93CDB7DEB7C65BD0400FB6B4
:1017A000F894DEBF0FBECDBF5C01FE01ED57FF4FC9
:1017B000CF01C2961192E817F907E1F78E010F5F8A
:1017C0001F4FC8010E946009C8010E949406882327
:1017D00009F461C2EE24FF24DD24D39423E8822E91
:1017E000912C8C0E9D1E47C2C8010E946007892B58
:1017F00009F441C2C8010E94440791E3E916F104CB
:101800003CF4F401EE0DFF1D80830894E11CF11CF3
:101810008A3009F02DC2DD2019F4DD24D3942BC2C7
:10182000C501BE016D577F4F0E94180BAC018FEFB1
:101830009FEF9093D9068093D806EAEAF2E020E081
:1018400030E0808191818417950729F43093D9067F
:101850002093D80607C02F5F3F4FE559FF4F2A302E
:10186000310579F74091D8065091D906EFEF4F3FF7
:101870005E0759F18BE690E0489FF001499FF00D1B
:10188000589FF00D1124E655FD4FEA59FF4F808116
:101890009181E656F0400197C1F4E859FF4F8081ED
:1018A0009181019719F021E030E002C022E030E0A0
:1018B0008BE690E0489FF001499FF00D589FF00D96
:1018C0001124EE5EFC4F318320837E010894E11CDD
:1018D000F11CC70167EB71E00E94F117C70167ECCB
:1018E00071E00E94F117C7016FED71E00E94F117DE
:1018F000C7010E94DA168B819C81998B888B8D8120
:101900009E81AF81B8858A8B9B8BAC8BBD8B898583
:101910009A85AB85BC858E8B9F8BA88FB98F0AE18A
:1019200012E01F870E878D858A8FC501BE01625F19
:101930007F4F48E650E00E94D00A8B819C819E8FA9
:101940008D8F8D819E81AF81B8858F8F98A3A9A33C
:10195000BAA389859A85AB85BC858BA39CA3ADA3CF
:10196000BEA31C8F0B8F8D858FA3C501BE01655E45
:101970007F4F42EC51E00E94D00A8B819C819BA753
:101980008AA78D819E81AF81B8858CA79DA7AEA7C0
:10199000BFA789859A85AB85BC8588AB99ABAAAB77
:1019A000BBAB19A708A78D858CABC501BE01685DCF
:1019B0007F4F43EC51E00E94D00A8B819C8198AF0D
:1019C0008FAB8D819E81AF81B88589AF9AAFABAF68
:1019D000BCAF89859A85AB85BC85FE01FD96808369
:1019E0009183A283B3831EAB0DAB8D85FE01EF5BAC
:1019F000FF4F8083C501BE016B5C7F4F41ED51E01D
:101A00000E94D00A90E1C92E93E0D92E4424552497
:101A100082E4682E712C6C0E7D1ECB54DF4F088340
:101A2000C55BD040CA54DF4F1883C65BD040170156
:101A30000FE4802E912C8C0E9D1E1CE5E12EF12CC6
:101A4000EC0EFD1E8E0107591F4FF601808191811A
:101A5000892B09F4DDC08B819C81F3019383828300
:101A60008D819E81AF81B88584839583A683B7835A
:101A700089859A85AB85BC8580879187A287B38746
:101A8000CB54DF4F8881C55BD0408083CA54DF4F81
:101A90009881C65BD04091838D858487C501B30151
:101AA00045EA52E00E94D00AC10162EF71E00E9453
:101AB000EE17EAE9FFEFCE0EDF1EF60160817181BD
:101AC00086E690E0C80ED91EC1014AE050E00E94AF
:101AD000DB178B819C81F401938382838D819E81AE
:101AE000AF81B88584839583A683B78389859A85DA
:101AF000AB85BC8580879187A287B387CB54DF4FA6
:101B00008881C55BD0408083CA54DF4F9881C65B13
:101B1000D04091838D858487C501B4014BEE52E09E
:101B20000E94D00AC1016FEF71E00E94EE178B8115
:101B30009C81F701938382838D819E81AF81B885DB
:101B400084839583A683B78389859A85AB85BC8575
:101B500080879187A287B387CB54DF4F8881C55B8D
:101B6000D0408083CA54DF4F9881C65BD0409183B8
:101B70008D858487C501B70142E053E00E94D00AF9
:101B8000F60182819381019761F48BE690E0489E93
:101B9000B001499E700D589E700D112462527D4F08
:101BA0000BC0EBE6F0E04E9EB0014F9E700D5E9EC6
:101BB000700D112464557D4FC1010E94EE178B8179
:101BC0009C81F801938382838D819E81AF81B8854A
:101BD00084839583A683B78389859A85AB85BC85E5
:101BE00080879187A287B387CB54DF4F8881C55BFD
:101BF000D0408083CA54DF4F9881C65BD040918328
:101C00008D858487C501B80145E053E00E94D00A64
:101C10000894411C511CEBE6F0E0CE0EDF1EFAE00A
:101C20004F16510409F011CFFE01EA58FF4F8B8186
:101C30009C81938382838D819E81AF81B8858483CB
:101C40009583A683B78389859A85AB85BC85808774
:101C50009187A287B3878AE192E0918380838D8503
:101C60008487C501BF0144E153E00E94D00A09C046
:101C70008D3009F0DD24C8010E94B406882309F0E4
:101C8000B3CD61E070E080E090E00E945A18CE0190
:101C900001960E94D806CA54DF4F0FB6F894DEBFF3
:101CA0000FBECDBFCF91DF911F910F91FF90EF90AD
:101CB000DF90CF90BF90AF909F908F907F906F906C
:101CC0005F904F903F902F9008950E94B9168FEF2C
:101CD0009FEF9093D9068093D8061092DB0610925E
:101CE000DA06A0E1B3E020E030E06FEF7FEF4BE6F3
:101CF00050E0A656B04011967C936E93AA59BF4F00
:101D000011961C921E9213961C921E921297149674
:101D10001C921497249FF001259FF00D349FF00D25
:101D20001124E455FD4F80E090E0108212AA019644
:101D3000319682339105C9F72F5F3F4FA559BF4FA9
:101D40002A303105B1F608950F9384EA92E060E0FD
:101D500040E020E000E00E944F168CE992E00E94F3
:101D6000650E0F9108956F927F928F929F92AF921E
:101D7000BF92CF92DF92EF92FF920F931F933C019D
:101D80005B016A01490184EE96E00E941D1689E01C
:101D900090E0B50146E050E00E94321482E090E00D
:101DA000C80ED91E8FE090E0B60144E050E00E94DA
:101DB00032140E5F1F4F81E090E0B80144E050E024
:101DC0000E943214E2E0F0E0EE0EFF1E85E090E0AB
:101DD000B70144E050E00E943214F4018281938103
:101DE000A481B581F30182839383A483B5831F917A
:101DF0000F91FF90EF90DF90CF90BF90AF909F90AA
:101E00008F907F906F9008956F927F928F929F92A4
:101E1000AF92BF92CF92DF92EF92FF920F931F93F8
:101E2000DF93CF93CDB7DEB76E970FB6F894DEBFD2
:101E30000FBECDBF4C013B017A0169015801CE01B3
:101E400001966FEF4FEF2FEF00E00E944F1627E64D
:101E500032E038872F83F70182819381A481B58195
:101E600089879A87AB87BC873E872D87F601828159
:101E70009381A481B5818F87988BA98BBA8B3C8B7A
:101E80002B8BF50182819381A481B5818D8B9E8BF3
:101E9000AF8BB88F3A8F298F8B819C81AD81BE81AA
:101EA0008B8F9C8FAD8FBE8FC401B301AE01495F94
:101EB0005F4F9E01235F3F4F8E010D5E1F4FE9E193
:101EC000EE2EF12CEC0EFD1E0E94B30E6E960FB698
:101ED000F894DEBF0FBECDBFCF91DF911F910F9160
:101EE000FF90EF90DF90CF90BF90AF909F908F903A
:101EF0007F906F9008950F931F93DF93CF93CDB78B
:101F0000DEB768970FB6F894DEBF0FBECDBFFA01FB
:101F1000D90122813381448155812B833C834D83B8
:101F20005E83E7E6F2E0F887EF8329873A874B87FD
:101F30005C87FE87ED8712962D913D914D915C91C6
:101F400015972F87388B498B5A8BFC8BEB8B21E0B5
:101F50002E832B813C814D815E812D8B3E8B4F8B5F
:101F6000588FAE01495F5F4F9E01235F3F4F8E0147
:101F70000D5E1F4F0E94040F68960FB6F894DEBFE7
:101F80000FBECDBFCF91DF911F910F910895DF93C9
:101F9000CF93CDB7DEB762970FB6F894DEBF0FBE12
:101FA000CDBFFA0122813381448155812B833C834B
:101FB0004D835E83E7E6F2E0F887EF8329873A876F
:101FC0004B875C87FE87ED8721E02E832B813C8148
:101FD0004D815E812F87388B498B5A8BAE01495FCB
:101FE0005F4F9E01235F3F4F0E947B0F62960FB6AB
:101FF000F894DEBF0FBECDBFCF91DF910895DC0115
:10200000ED91FC91008CF18DE02D09950895DB0197
:10201000FC0127E632E03183208351962D913D91DA
:102020004D915C9154972283338344835583089563
:10203000FC01858996890895FC01818D928D089512
:10204000DF93CF930F92CDB7DEB7FC016983A081F8
:10205000B18112962D913C911397BE016F5F7F4F16
:1020600041E050E0F90109950F90CF91DF9108957B
:10207000CF93DF93EC0107C0E881F9810680F781F7
:10208000E02DCE010995898D9A8D892BA9F7DF91D5
:10209000CF9108950F938CED96E060E040E020E052
:1020A00000E00E944F160F910895DF93CF930F9297
:1020B000CDB7DEB7FC01818D928D892B19F42FEFFE
:1020C0003FEF09C08485BE016F5F7F4F0E94C81338
:1020D0008981282F30E0C9010F90CF91DF910895B9
:1020E000CF93DF93EC019A01498D5A8D411551052B
:1020F000A1F02417350710F08C8502C08C85A9014A
:102100000E94D7139C01181619063CF4898D9A8DEC
:10211000821B930B9A8F898F02C02FEF3FEFC9016B
:10212000DF91CF9108950F931F93DF93CF930F9279
:10213000CDB7DEB78C01FC01818D928D892BA9F082
:102140008485BE016F5F7F4F41E050E00E94D7134E
:102150001816190654F4F801818D928D0197928F0B
:10216000818F8981282F30E002C02FEF3FEFC90116
:102170000F90CF91DF911F910F910895EF92FF92F1
:102180000F931F93DF93CF93CDB7DEB728970FB68A
:10219000F894DEBF0FBECDBF8C01DC01ED91FC9148
:1021A0000284F385E02D099584EE96E0F8016485BC
:1021B0000E940F15892B19F420E030E025C0D801CA
:1021C0001C968C917E010894E11CF11CB70148E03B
:1021D00050E00E94D7139C0118161906ACF4C801F0
:1021E0000F96B7010E94AC169D8180E02E81820F70
:1021F000911DF801968B858B9F8180E02885820F49
:10220000911D928F818F9C01C90128960FB6F89479
:10221000DEBF0FBECDBFCF91DF911F910F91FF9019
:10222000EF9008950F931F938C01FB019A01DC013D
:1022300057966D917C9158971C968C91AF010E9496
:1022400041139C01F8018789908D820F931F908F15
:10225000878BC9011F910F910895FC0184850E940D
:102260003F120895FC01108E178A6E5F7F4F8485A0
:102270000E94DB120895FC011382128288EE93E023
:10228000A0E0B0E084839583A683B78383E492E0E3
:102290009183808384E08487CF010F960E94B916D2
:1022A00008956F927F928F929F92AF92BF92CF923A
:1022B000DF92EF92FF920F931F93DF93CF93CDB7EF
:1022C000DEB7E5970FB6F894DEBF0FBECDBF4C0169
:1022D0005B013A0183E1E82EF12CEC0EFD1EC701F3
:1022E0000E94B916CE014B960E943B116E010894D4
:1022F000C11CD11CC6010E94B9168E01095F1F4F77
:10230000C8016CE972E00E94220AC701B8010E946C
:102310003F03C701B501A6010E94BE059C018130A3
:102320009105C9F4D401ED91FC910088F189E02D6B
:1023300087E692E09E878D878B819C81AD81BE81EF
:102340008F87988BA98BBA8BC401BE01635F7F4FC7
:10235000A30109959C01C901E5960FB6F894DEBF6B
:102360000FBECDBFCF91DF911F910F91FF90EF90E6
:10237000DF90CF90BF90AF909F908F907F906F90A5
:102380000895CF93DF93EC018C85843061F00E9437
:102390006312EC85F0E0EE0FFF1FEC56FD4F11824B
:1023A000108284E08C87DF91CF910895CF92DF92E5
:1023B000EF92FF920F931F93CF93DF937C016B01FA
:1023C000FC018485843019F5C0E0D0E003E014E01E
:1023D000C8010E945914882311F0883119F4F701BB
:1023E000C48706C0219600501F4FC430D10581F725
:1023F000F7018485843059F0D686C586128E118EF9
:1024000062E0A60120E00E94A21281E001C080E00B
:10241000DF91CF911F910F91FF90EF90DF90CF90C0
:102420000895682F84EE96E048E050E00E940B1675
:10243000089590E0982F88278E5F9B4F0E94591433
:1024400008951F93182F982F80E08D5F9B4F0E9457
:102450005914833111F080E008C084EE96E0612FBA
:1024600042E050E00E940B1681E01F91089590E039
:10247000982F88278E5F9B4F0E94181408951F93F2
:10248000182F84EE96E0612F40E250E00E940B1678
:102490000CC0812F0E94191283FF07C0812F68E1B1
:1024A0000E94371220E030E00BC0812F0E941912E9
:1024B00084FFEFCF812F60E10E94371221E030E0EE
:1024C000C9011F9108951F93182F84EE96E0612F84
:1024D00040E150E00E940B16812F6FEF0E943712EF
:1024E0001F910895FF920F931F93F62E672F082FC9
:1024F00010E00C5F1F4F102F0027C80140960E946C
:102500001814C80141966F2D0E9418141F910F9145
:10251000FF900895FF920F931F93F62E672F082FB9
:1025200010E00C5F1F4F102F0027C80104960E9477
:102530001814C80105966F2D0E9418141F910F9151
:10254000FF900895FF920F931F93CF93DF93082F6F
:10255000F62EEA01122F862F8150853010F080E090
:1025600024C0802F0E9463121F2980E0902F9C5F5F
:10257000612F0E941814209719F0802FBE010BC004
:102580006091E2067091E3066F5F7F4F7093E30600
:102590006093E206802F0E948A1284EE96E0602FFC
:1025A00041E050E00E940B1681E0DF91CF911F9136
:1025B0000F91FF9008951F93CF93DF93182FFB0186
:1025C000EA018081882349F48181882331F4828162
:1025D000882319F48381882391F0209781F0912F2B
:1025E00080E0845F9B4FBF0144E050E00E943214C2
:1025F000812FBE010E94721221E030E002C020E073
:1026000030E0C901DF91CF911F9108951F93CF93BF
:10261000DF93182FFB01EA0180818F3F51F4818104
:102620008F3F91F482818F3F79F483818F3F61F4F2
:1026300023C0882349F48181882331F4828188234F
:1026400019F483818823C1F02097B1F0912F80E0A5
:10265000845F9B4FBF0144E050E00E943214812F01
:10266000BE010E94721284EE96E0612F44E050E0B9
:102670000E940B1681E001C080E0DF91CF911F9195
:102680000895AF92BF92DF92EF92FF920F931F9344
:10269000CF93DF93D82EEB015A01890184EE96E0A7
:1026A0006D2D0E9442158017910710F0780106C029
:1026B00084EE96E06D2D0E9442157C0184EE96E03A
:1026C0006D2DAE01950187010E947B14C701DF913A
:1026D000CF911F910F91FF90EF90DF90BF90AF903F
:1026E0000895AF92BF92DF92EF92FF920F931F93E4
:1026F000CF93DF93D82E5B018A0188E041305807E1
:1027000010F000E018E0DD2DC0E0CD5FDB4F84EE7F
:1027100096E06D2D0E9442157C01CE010E94591455
:10272000873129F08C3119F000E010E003C0E01689
:10273000F10668F384EE96E06D2DA50198010E94E4
:10274000EC1484EE96E06D2D40E250E00E940B16F2
:102750000BC0CE010E945914882331F48D2D0E94A4
:10276000631200E010E009C08D2D0E94191284FF51
:10277000F0CF8D2D60E10E943712C801DF91CF911B
:102780001F910F91FF90EF90DF90BF90AF90089551
:102790000F93282FAB0184EE96E0622F21E030E00A
:1027A00001E00E94C01581E090E00F910895CF9262
:1027B000DF92FF920F931F93CF93DF93F82E6B015D
:1027C0008A0184EE96E06F2D0E940F15EC010097B0
:1027D00069F49F2D80E08D5F9B4F0E9459148431D6
:1027E000D9F08823C9F08C31B9F01FC00817190738
:1027F0000CF4E8011C161D067CF484EE96E06F2DA7
:10280000A6019E0100E00E94C01584EE96E06F2DA7
:1028100040E450E00E940B16CE01DF91CF911F9152
:102820000F91FF90DF90CF900895CFEFDFEFF4CFBF
:10283000282F2A9880EF8EBD0DB407FEFDCF8EB5F0
:102840009EBD0DB407FEFDCF8EB52EBD0DB407FEA7
:10285000FDCF8EB56EBD0DB407FEFDCF8EB52A9AA5
:1028600081E00895DC0120E030E090EF1DC02A985F
:102870009EBD0DB407FEFDCF8EB5BEBD0DB407FEE7
:10288000FDCF8EB5AEBD0DB407FEFDCF8EB5FB01FD
:10289000E20FF31F80818EBD0DB407FEFDCF1196B0
:1028A0008EB52A9A2F5F3F4F2417350700F3CA01D0
:1028B0000895282F2A988FE08EBD0DB407FEFDCF16
:1028C0008EB59EBD0DB407FEFDCF8EB52EBD0DB4E9
:1028D00007FEFDCF8EB51EBC0DB407FEFDCF8EB535
:1028E0002A9A089590E00496982F8827860F971FBC
:1028F0000E94591408957F928F929F92AF92BF9237
:10290000CF92DF92EF92FF920F931F93CF93DF93BB
:102910006C01762E7A0149015801862F64E270E03D
:102920000E947214182F872D65E270E00E947214C5
:10293000C82FD0E0912F80E0C82BD92BCE0DDF1D02
:10294000AE015770872D90E0880F991FC80ED91ED1
:10295000F60120813181240F351FCA018A0D9B1D8C
:102960008150984098F000E018E0041B150BC90155
:10297000B401A8010E943214A501401B510BF601BD
:1029800080819181080D191DB80103C0C901B401EE
:10299000A5010E9432147E01EA0CFB1C072D10E0F9
:1029A0000C5F1F4F102F0027C80184966F2D0E94C7
:1029B0001814C80185966E2D0E941814DF91CF91CE
:1029C0001F910F91FF90EF90DF90CF90BF90AF904D
:1029D0009F908F907F9008950F931F93FA01890124
:1029E00040E050E09F010E947B141F910F910895D9
:1029F0000F931F93182F66E270E00E947214082F45
:102A0000812F67E270E00E947214502F40E0282F5F
:102A100030E0242B352BC9011F910F910895FF92AF
:102A20000F931F93CF93DF93F62EC0E0D0E08F2D4E
:102A30000E94F8148C01009721F08F2D0E94F81449
:102A4000EC01C017D10799F7CE01DF91CF911F910B
:102A50000F91FF9008950F931F93182F60E270E07D
:102A60000E947214082F812F61E270E00E9472149C
:102A7000502F40E0282F30E0242B352BC9011F9127
:102A80000F910895FF920F931F93CF93DF93F62E2C
:102A9000C0E0D0E08F2D0E942B158C01009721F013
:102AA0008F2D0E942B15EC01C017D10799F7CE018D
:102AB000DF91CF911F910F91FF900895DC0120E0ED
:102AC00030E09FE01DC02A989EBD0DB407FEFDCFEB
:102AD0008EB5BEBD0DB407FEFDCF8EB5AEBD0DB437
:102AE00007FEFDCF8EB51EBC0DB407FEFDCF1196BF
:102AF0008EB5FB01E20FF31F80832A9A2F5F3F4FB1
:102B00002417350700F3CA010895CF92DF92EF92A0
:102B1000FF920F931F93CF93DF9369017801577052
:102B2000C62FD0E02496CC0FDD1FC80FD91F2881F7
:102B30003981240F351FC801840F951F815098409B
:102B400088F000E018E0041B150BC901B601A801CC
:102B50000E945E15E01AF10A888199810C0D1D1DF5
:102B6000B80102C0C901B601A7010E945E15DF913C
:102B7000CF911F910F91FF90EF90DF90CF9008952C
:102B80008F929F92AF92BF92CF92DF92EF92FF927D
:102B90000F931F93CF93DF937C01A62E6A01490107
:102BA000B02E862F68E270E00E947214182F8A2DD2
:102BB00069E270E00E947214C82FD0E0912F80E08B
:102BC000C82BD92BC7016A2DAE01960184010E9442
:102BD0008515BB2099F47E01E80CF91C0A2D10E044
:102BE0000C5F1F4F102F0027C80188966F2D0E9481
:102BF0001814C80189966E2D0E941814DF91CF9188
:102C00001F910F91FF90EF90DF90CF90BF90AF900A
:102C10009F908F9008951F93162F962F80E08F5FBF
:102C20009B4F642F0E941814812F61E070E00E9476
:102C300072148823C9F71F9108950F931F93182FBB
:102C4000092F6CE271E080E090E00E945A180E9427
:102C50001D03229A80E090E060E80E9418148BE146
:102C600090E065E50E9418148AE190E065E50E9415
:102C70001814212F302FC901FC0180E090E49183CA
:102C800080838050904E9187808780509841329603
:102C900020E68030920799F71F910F9108950F93C6
:102CA000FC0187E692E091838083628343832483DF
:102CB00005830F91089587E692E09093F50680933F
:102CC000F4061092F6061092F7061092F80610928B
:102CD000F90608958F929F92AF92BF92CF92DF92A2
:102CE000EF92FF920F931F93CF93DF934C016B01F1
:102CF0007C01AA24BB24C0E0D0E0C601F7016281B8
:102D00004AE050E00E9489178C01C6016EE20E94E1
:102D1000D216080F191FA00EB11E21960894E11CAF
:102D2000F11CC330D10549F7C601F40165814AE0C1
:102D300050E00E9489179501280F391FC901DF91C2
:102D4000CF911F910F91FF90EF90DF90CF90BF90A8
:102D5000AF909F908F9008959C01FB01808191819D
:102D6000A281B381F90182839383A483B583C901CE
:102D70000895FC0187E692E091838083128213829A
:102D8000148215820895CF93DF930E94B3180E9496
:102D90008F02C0E0D0E00E942B022097E1F30E9456
:102DA0000000F9CFDC01ED91FC910190F081E02D64
:102DB00009950895EF92FF920F931F938C01DC0108
:102DC000ED91FC910190F081E02D6DE009957C0181
:102DD000D801ED91FC910190F081E02DC8016AE0ED
:102DE00009959C012E0D3F1DC9011F910F91FF9068
:102DF000EF900895CF93DF93EC016115710519F4FD
:102E000020E030E00FC0DB010D900020E9F71197C2
:102E1000A61BB70BE881F9810280F381E02DAD019B
:102E200009959C01C901DF91CF9108954F925F925E
:102E30007F928F929F92AF92BF92CF92DF92EF924A
:102E4000FF920F931F93DF93CF93CDB7DEB7A19778
:102E50000FB6F894DEBF0FBECDBF2C01742ECB0190
:102E6000223008F42AE019A231E2C32ED12CCC0E74
:102E7000DD1E822E9924AA24BB24672D752FA5015F
:102E800094010E94A01979018A01C801B701A50126
:102E900094010E948119472D461B0894C108D1084E
:102EA0004A3014F4405D01C0495CF6014083E114EE
:102EB000F1040105110521F07E2C5F2DC801DDCF45
:102EC000C201B6010E94FA16A1960FB6F894DEBFB1
:102ED0000FBECDBFCF91DF911F910F91FF90EF906B
:102EE000DF90CF90BF90AF909F908F907F905F903A
:102EF0004F900895DC012115310541F4ED91FC91CD
:102F00000190F081E02D642F099508950E94161715
:102F10000895EF92FF920F931F939A01E62EFF24DC
:102F200000E010E0B801A7010E947A171F910F91ED
:102F3000FF90EF900895CF92DF92EF92FF920F9360
:102F40001F93CF93DF93EC016A017B0121153105BB
:102F500041F4E881F9810190F081E02D642F099519
:102F60001FC02A303105D1F477FF17C0E881F981FD
:102F70000190F081E02D6DE209958C0144275527E1
:102F8000BA014C195D096E097F09CE012AE00E9441
:102F900016179801280F391F04C02AE00E9416173F
:102FA0009C01C901DF91CF911F910F91FF90EF908C
:102FB000DF90CF900895EF92FF920F931F937B01C4
:102FC0009A010027F7FC0095102FB801A7010E9475
:102FD0009B171F910F91FF90EF9008950E94FA1692
:102FE0000895EF92FF920F931F937C010E94FA16AF
:102FF0008C01C7010E94DA16080F191FC8011F9122
:103000000F91FF90EF9008951F920F920FB60F92BD
:1030100011242F933F938F939F93AF93BF938091EE
:10302000FE069091FF06A0910007B0910107309134
:1030300002070196A11DB11D232F2D5F2D3720F012
:103040002D570196A11DB11D209302078093FE0606
:103050009093FF06A0930007B09301078091FA06B2
:103060009091FB06A091FC06B091FD060196A11D72
:10307000B11D8093FA069093FB06A093FC06B093D3
:10308000FD06BF91AF919F918F913F912F910F902E
:103090000FBE0F901F9018958FB7F8942091FE06E1
:1030A0003091FF0640910007509101078FBFB90191
:1030B000CA0108959B01AC017FB7F8948091FA068C
:1030C0009091FB06A091FC06B091FD0666B5A89B09
:1030D00005C06F3F19F00196A11DB11D7FBFBA2F2A
:1030E000A92F982F8827860F911DA11DB11D62E081
:1030F000880F991FAA1FBB1F6A95D1F7BC012DC06D
:10310000FFB7F8948091FA069091FB06A091FC0617
:10311000B091FD06E6B5A89B05C0EF3F19F00196FA
:10312000A11DB11DFFBFBA2FA92F982F88278E0F81
:10313000911DA11DB11DE2E0880F991FAA1FBB1FA1
:10314000EA95D1F7861B970B885E9340C8F2215011
:1031500030404040504068517C4F211531054105B9
:10316000510571F60895789484B5826084BD84B564
:10317000816084BD85B5826085BD85B5816085BD72
:10318000EEE6F0E0808181608083E1E8F0E010828B
:10319000808182608083808181608083E0E8F0E0CC
:1031A000808181608083E1EBF0E0808184608083B6
:1031B000E0EBF0E0808181608083EAE7F0E08081ED
:1031C000846080838081826080838081816080834D
:1031D0008081806880831092C1000895CF93DF932F
:1031E000482F50E0CA0185589C4FFC013491495941
:1031F0005C4FFA018491882369F190E0880F991F50
:10320000FC01E75BFC4FA591B491FC01ED5AFC4F2A
:10321000C591D491662351F42FB7F8948C91932FD4
:10322000909589238C93888189230BC0623061F447
:103230002FB7F8948C91932F909589238C93888144
:10324000832B88832FBF06C09FB7F8948C91832B64
:103250008C939FBFDF91CF910895482F50E0CA0112
:1032600081579C4FFC012491CA0185589C4FFC0159
:10327000949149595C4FFA013491332309F440C0C9
:10328000222351F1233071F0243028F42130A1F0B1
:10329000223011F514C02630B1F02730C1F02430AF
:1032A000D9F404C0809180008F7703C080918000A2
:1032B0008F7D8093800010C084B58F7702C084B565
:1032C0008F7D84BD09C08091B0008F7703C080914D
:1032D000B0008F7D8093B000E32FF0E0EE0FFF1F72
:1032E000ED5AFC4FA591B4912FB7F894662321F4C1
:1032F0008C919095892302C08C91892B8C932FBF40
:103300000895629FD001739FF001829FE00DF11D2F
:10331000649FE00DF11D929FF00D839FF00D749F4F
:10332000F00D659FF00D9927729FB00DE11DF91FFB
:10333000639FB00DE11DF91FBD01CF011124089558
:10334000A1E21A2EAA1BBB1BFD010DC0AA1FBB1FA9
:10335000EE1FFF1FA217B307E407F50720F0A21B1B
:10336000B30BE40BF50B661F771F881F991F1A9488
:1033700069F760957095809590959B01AC01BD01B2
:10338000CF010895EE0FFF1F0590F491E02D0994F1
:04339000F894FFCFDF
:103394004C69676172204172636F6E646963696F1F
:1033A4006E61646F004465736C6967617220417279
:1033B400636F6E646963696F6E61646F004C696703
:1033C40061722056656E74696C61646F7200446545
:1033D400736C696761722056656E74696C61646FA1
:1033E40072004C696761722054656C65766973611B
:1033F4006F004465736C6967612054656C65766918
:1034040073616F004465736C696761204D61717508
:10341400696E61206465204C61766172004C696755
:1034240061204D617175696E61206465204C61761F
:10343400617200627574746F6E5F69643D00204848
:103444005454502F312E00485454502F312E3120D3
:10345400323030204F4B00436F6E74656E742D54C0
:103464007970653A20746578742F68746D6C0043C4
:103474006F6E6E6E656374696F6E3A20636C6F7302
:1034840065002F3F627574746F6E5F69643D003C24
:103494002F6469763E00DEADBEEFFEED0300010051
:1034A4000200040000040000000065066E076007C7
:1034B40044071A077D068C0702083F07D806B4069E
:1034C4009406000000007C080109D80900000000EF
:1034D400000000201012111C10931055103810D643
:1034E40011C111321151112D11BE107010FF0F07AF
:0A34F400101810000000006A160016
:00000001FF
